:020000040800F2
:1000000000000120E5010008A5050008A70500087B
:10001000A9050008AB050008AD05000800000000B8
:10002000000000000000000000000000AF05000814
:10003000B105000800000000B3050008B505000880
:1000400029020008290200082902000829020008E4
:1000500029020008290200082902000829020008D4
:1000600029020008290200082902000829020008C4
:1000700029020008290200082902000829020008B4
:1000800029020008290200082902000829020008A4
:10009000B705000829020008290200082902000803
:1000A0002902000829020008290200082902000884
:1000B0002902000829020008290200082902000874
:1000C0002902000829020008290200082902000864
:1000D0002902000829020008BD05000829020008BD
:1000E0002902000829020008290200082902000844
:1000F0002902000829020008290200082902000834
:100100002902000829020008290200082902000823
:100110002902000829020008290200082902000813
:100120002902000829020008290200082902000803
:1001300000000000000000000000000000000000BF
:1001400000000000000000000000000000000000AF
:10015000000000000000000000000000000000009F
:10016000000000000000000000000000000000008F
:10017000000000000000000000000000000000007F
:10018000000000000000000000000000000000006F
:10019000000000000000000000000000000000005F
:1001A000000000000000000000000000000000004F
:1001B000000000000000000000000000000000003F
:1001C000000000000000000000000000000000002F
:1001D000000000000000000000000000000000001F
:0401E0005FF8E0F1F3
:1001E400002103E00A4B5B584350043109480A4B91
:1001F40042189A42F6D3094A02E0002342F8043B2B
:10020400074B9A42F9D302F06DF900F087F8704772
:10021400C07C00080000002074010020740100204C
:10022400940E0020FEE710B5002002F0BFF8012074
:1002340002F0BCF8022002F0B9F8032002F0B6F88C
:10024400022002F0DFF8002002F0DCF8032002F0C4
:10025400CBF80120BDE8104002F0C6B837B5012044
:1002640003F06AFB002002F0EFFD02F007FC02F04D
:10027400E1FF0220002402F00BFA41F2F80002F040
:1002840017FA0125C8211F4A4FF0FF332046009476
:10029400019502F065FB284602F0FAF9204602F0C7
:1002A40007FA2046B421184A4FF0FF330094019511
:1002B40002F056FB2046A021144A4FF0FF3300946D
:1002C400019502F04DFB782115233220104A009449
:1002D400019402F045FB4FF4F85002F0E9F920468E
:1002E40050210C4A4FF0FF330094019502F038FB83
:1002F40020463C21084A4FF0FF330094019502F058
:100304002FFB3EBDC07B0008CC7B0008DA7B0008D5
:10031400EA7B0008FF7B0008157C000873B500F039
:1003240029FB00F073FB00F07CFB01F0CBFDFFF731
:100334007AFF03F0EDF8FFF791FF00258D4C236859
:100344002BB38D4B1B68052B21D103208B4902F065
:100354001BF801228120894902F002F8012001F0F2
:100364000EFF00232360854B1E78732E00F0FC8063
:10037400752E00F0FC80642E00F0EF80722E00F0E9
:10038400EF806C2E0CBF4FF480760026EAE07C48A8
:1003940000F0E5FD4FF4004104467A4800F0D9FD31
:1003A40018B904F47066044602E000244FF40046D1
:1003B400022002F06DF9F82002F07AF916B9002C47
:1003C4004AD1BBE7B6F5806F6F4B16D04FF00004EF
:1003D40006D8B6F5807F33D0B6F5007F3CD123E054
:1003E400B6F5006F14D0B6F5004F35D10122009454
:1003F4000192204605211A6805E00020012400909E
:1004040001945A6805214FF0FF3302F0A9FA2FE056
:1004140001220094019220469A6805214FF0FF338F
:1004240002F09EFA022423E0012200940192204665
:10043400DA6805214FF0FF3302F092FA032417E043
:1004440001220094019220461A6905214FF0FF33DE
:1004540002F086FA04240BE00123019300204A4BA6
:1004640000905A6905214FF0FF3302F079FA052410
:10047400454B0D2253F82410812001F071FF012017
:1004840001F07DFE022002F003F90024F82002F0BE
:100494000FF9012620461E213C4A4FF0FF330094F9
:1004A400019602F05DFA304602F0F2F8204601F0BF
:1004B400B7FF334800F053FD10F4706FF9D13EE0FC
:1004C4000135B5F5801F3AD3002002F051FD00201C
:1004D40002F008FD4FF48050012402F09DFC02F06C
:1004E400CDFA02F0DBF800206421294A4FF0FF33F3
:1004F4000094019402F034FA00203221254A4FF08E
:10050400FF330094019402F02BFA00201421224AB4
:100514004FF0FF330094019402F022FA204602F0D7
:10052400B7F8204601F07CFF072001F089FF04465C
:100534000028F9D102F07CFC204602F0D3FC07200D
:1005440001F07EFF0028BBD181301449032201F061
:1005540007FF012001F013FEF0E64FF4006601E00E
:100564004FF40076012423E74FF40046FAE74FF4F2
:100574008066F7E77401002080010020F00100206C
:10058400001401400018014000000020327C0008E3
:10059400427C0008527C00085A7C0008677C0008F2
:1005A4007047FEE7FEE7FEE7FEE7704770477047D7
:1005B400704700F051B8000010B5094840F22551C9
:1005C40000F0D0FB08B100F0FBFA0548082100F068
:1005D400C3FB20B10248BDE8104000F0B9BB10BD18
:1005E4000044004010B5074B1A78012A01D1013AA2
:1005F4001A700120002101F05FFE0120BDE81040C7
:1006040001F0BDBD8401002010B5032001F082FE7D
:10061400054B06491860032001F0B6FE0320BDE82F
:10062400104001F0BEBD00BF74010020F2010020A3
:10063400074B1B68052B09D1064B5A68511C052A28
:10064400596003D1053A5A6000F07ABA704700BF86
:100654008001002074010020184A38B51168184B35
:1006640089B2184C1980198820881D4600EA0101B6
:1006740011F4007F09D04FF6FF531360124B1A7820
:100684000132D2B21A70FFF7D3FF2B88228802EA14
:10069400030313F4004F01D001F030FC2B882288AF
:1006A40002EA030313F4806F06D0044B4FF6FF32C3
:1006B4001A60064B5B68984738BD00BF445C004035
:1006C40072020020BC0A00207C010020A800002047
:1006D400034B9B7A13B1034B05221A60704700BF8A
:1006E400980A002080010020014B04221A60704700
:1006F4008001002070470000212808B508D1134B61
:100704001B681B7803F07F03212B11D01F3808BD11
:10071400202817D10D4B0E4A1B681B7803F07F036A
:10072400212B0CBF134600230A4A10700BB90BE0AF
:10073400094B064A002112680020936151829847B0
:10074400002008BD022008BD022008BDB80A002010
:10075400B10700087D01002099070008084B1B68B9
:100764001B7803F07F03212B06D1022806D0222810
:1007740014BF0220002070470220704700207047F9
:10078400B80A002021B901288CBF0220002070473C
:100794000220704720B9034B08221B681A82704755
:1007A40001487047B80A00207000002020B9034BAC
:1007B40008221B681A82704701487047B80A002053
:1007C40070000020054B1B68DB78042B04D8044917
:1007D40001EBC30101F00EB900207047B80A0020F4
:1007E40078000020014901F005B900BF98000020FD
:1007F400014901F0FFB800BFA000002010B5044C6F
:100804002378202B03D100F051F90023237010BD6D
:100814007D010020334B344A1B68D27910B5002483
:100824005A729C72DC72204601F05AFC20464FF446
:10083400007101F05FFC1021204601F068FC4021AA
:10084400204601F00BFD8021204601F0F5FC2046F6
:1008540001F0B9FC254B204693F8641001F03AFDF1
:10086400204601F09EFC0120214601F043FC0120BA
:10087400C02101F0E1FC0120202101F048FC01200D
:10088400214601F060FC02204FF4C06101F032FC0B
:1008940002204FF4807101F0CFFC0220214601F0C8
:1008A40052FC0220202101F032FC0320214601F0F9
:1008B40021FC03204FF4887101F0D0FC0320402177
:1008C40001F008FD03204FF4405101F03CFC0320EB
:1008D400214601F01CFC204601F0A0FA044B012241
:1008E4001A6010BDB80A0020F23900087000002018
:1008F4008001002010B500F08BF9064B00241B6822
:100904009C7200F00BF801F01BFD00F0B3F8024BF1
:100914001C6010BDB80A00208001002008B5012029
:1009240000F09CF8064B01221A60064A0020064992
:10093400186010604FF4E0520A801A6008BD00BFCE
:10094400405C0040445C0040BC0A002010B5002319
:100954000CE0040F092C01D8303400E037340C705B
:10096400013300244C700001DBB202319342F0D316
:1009740010BD000013B500F033FB4FF4803000F0DD
:100984004FFB00F053FC1F4B01280446187026D17E
:10099400102000F011FA022000F004FA002000F008
:1009A4007FFB002000F090FB4FF4806000F082FB9E
:1009B4004FF480304FF4801100F04EFB204600F0DD
:1009C40057FB392000F01EFC0028FAD0022000F06A
:1009D40055FB00F05DFB08280446FAD100E0FEE771
:1009E4002020012100F0DEFB03238DF806300648A9
:1009F400113301A9ADF804408DF8073000F05AFA1C
:100A04001CBD00BF7402002000140140002010B57A
:100A140000F064FB4FF400000121BDE8104000F039
:100A2400CDBB13B54FF4C06000F0C2FD14238DF8A4
:100A340004300124143B01A88DF805308DF80630EC
:100A44008DF8074000F0BEFD262301A88DF8043080
:100A54008DF8054000F0B6FD1CBD000018B1044837
:100A6400082100F081BA0248082100F07BBA00BFD7
:100A7400001401400B494FF4165310B50B604FF4AA
:100A8400C06300200B810C238880C88088814B813F
:100A940001F0E6FC044840F225510122BDE8104073
:100AA40000F03BB9780A00200044004008B5224B0E
:100AB4001A79012A06D002D3022A38D106E01F4A45
:100AC400002106E01D4A4FF4405102E01B4A4FF456
:100AD4000051D1805A79012A06D002D3022A26D1A4
:100AE40006E0164A002106E0144A4FF4806102E051
:100AF400124A4FF4C06111819A79072A02D0082A58
:100B040015D102E00D4A002104E00C4A118909B113
:100B14004FF4805191801B68084900200B6000232A
:100B24008B810C234B8101F09BFC012008BDFFF756
:100B3400A1FF002008BD00BF70000020780A00203B
:100B440070B51D4B1A78012A34D05A68B2F5006F7B
:100B540001D100225A605A6898681749824202D12A
:100B640000230B7070BD8CBFC2F50060C2EB0000A7
:100B7400C860DC681049402C90B205D94032403C32
:100B84004A60CC60402504E0A2184A600022A5B265
:100B9400CA6001241C70094BC02118182A4601F0B0
:100BA40077FA2046294601F087FB2046BDE87040CD
:100BB40001F0E5BA70BD00BF840100207502002079
:100BC40038B50F4B0F4C9B79072B06D10E48A568FF
:100BD40000F0BEF800F07F0005E0082B05D10A48BC
:100BE400A56800F0B5F8094B5855A3680133B3F56F
:100BF400006FA36002D1034B00229A6038BD00BF8E
:100C04007000002084010020004400407502002090
:100C1400094A0A4B10B51B6814685068C0180AD0FA
:100C240008220749FFF792FE064920460422BDE840
:100C34001040FFF78BBE10BDECF7FF1FE8F7FF1F56
:100C44001E0000202E00002030B5038ACA8823F439
:100C540040531B041B0C134303820D4683890989EB
:100C6400AA8823F4B05341EA0202698923F00C03F1
:100C74000A431B041B0C92B242EA03038381838A56
:100C8400AA8923F440731B041B0C87B01343044646
:100C9400838201A800F028FA184BA2899C4212B260
:100CA4000CBF049B039B002A4FF019012A6802DA47
:100CB4005943520001E0594392006423B1FBF2F11D
:100CC400B1FBF3F21201100903FB1011A08900B269
:100CD400002806DAC9003231B1FBF3F303F007034D
:100CE40005E009013231B1FBF3F303F00F0343EAEA
:100CF400020292B2228107B030BD00BF0038014029
:100D040021B183899BB243F4005304E0838923F423
:100D140000531B041B0C83817047CBB210B55B09D5
:100D2400012401F01F0114FA01F1A34201D10C3096
:100D340004E0022B01D1103000E014301AB1036832
:100D440043EA010102E0036823EA0101016010BDE6
:100D54008088C005C00D7047038819420CBF00206D
:100D64000120704710B5CCB20122640901F01F03C1
:100D74009A40012C01D1838903E0022C0CBF038A21
:100D8400838A9BB202EA0303028892B243B1090A3E
:100D9400012313FA01F111420CBF0020012010BD00
:100DA400184610BD034B1A6802F0380240EA0202EA
:100DB4001A60704700200240044B1A6822F01002A7
:100DC4001A601A6840EA02021A6070470020024062
:100DD40070B584684568C36844EA05051D43036922
:100DE400816A1D43436902681D438369082C45EAEF
:100DF4000305C36945EA0305036A45EA0305436A33
:100E040045EA0305C36A45EA010545EA03054FF0CF
:100E1400204343F8225005D153F8224044F04004C3
:100E240043F82240036B541C9E691D68B1F5804F42
:100E340046EA05055E6845EA06159E6845EA062504
:100E4400DE6845EA06451E695B6945EA065545EADA
:100E540003654FF0204343F8245011D1436B986944
:100E6400196840EA0101586841EA0011986841EAAA
:100E7400002118695B6941EA005141EA036101E01C
:100E84006FF07041014B43F8221070BD040100A0C3
:100E94004FF0204321B153F8202042F0010204E036
:100EA40053F82010024A01EA020243F82020704756
:100EB400FEFF0F00CB78F0B513F0100F03F00F0214
:100EC4000E881CBF8B781A4316F0FF0F1DD00468E0
:100ED400002301279F4007EA0605BD4211D19F0068
:100EE4004FF00F0C0CFA07FC12FA07F724EA0C0473
:100EF4003C43CF78282F01D1456102E0482F08BF39
:100F040005610133082BE4D104600E88FF2E1FD93C
:100F14004468002303F108050127AF4007EA0605EA
:100F2400BD4211D19F004FF00F0C0CFA07FC12FACE
:100F340007F724EA0C043C43CF78282F01D14561FC
:100F440002E0482F08BF05610133082BE2D1446059
:100F5400F0BD836819420CBF0020012070478068EF
:100F640080B2704701617047416170470AB1016105
:100F7400704741617047000030B50028174B00F4FA
:100F84004014B4BFDB695B68B4F5401F82B207D17B
:100F9400124C23F07063656825F07065656011E09C
:100FA40010F4801F06D000F47024240C032515FAD5
:100FB40004F403E0440D240112FA04F423EA0403C4
:100FC40043F0706319B1410D09018A401343034A88
:100FD4000028B4BFD361536030BD00BF000001409E
:100FE4000D4B1A6842F001021A6059680B4A01EA73
:100FF40002025A601A6822F0847222F480321A6063
:101004001A6822F480221A605A6822F4FE025A6096
:101014004FF41F029A607047001002400000FFF86E
:101024000C4BB0F5803F1A6822F480321A601A68BB
:1010340022F480221A6003D0B0F5802F09D104E095
:101044001A6842F480321A6070471A6842F4A02287
:101054001A60704700100240044B5A6822F47C1254
:1010640040EA02020A435A60704700BF001002407F
:10107400014B1860704700BF60004242034B5A683E
:1010840022F0030240EA02025A6070470010024054
:10109400024B586800F00C00704700BF001002407B
:1010A400034B5A6822F0F00240EA02025A60704789
:1010B40000100240034B5A6822F4E06240EA020244
:1010C4005A60704700100240034B5A6822F4605281
:1010D40042EAC0025A60704700100240014B186097
:1010E400704700BFD800424210B5224B5A6802F044
:1010F4000C02042A03D0082A04D01F4B00E01F4B23
:10110400036012E05A68596802F47012920C0232B9
:1011140011F4803F01D11A4B05E05B6813F4003FE2
:1011240014BF184B154B5A430260124A164B5168B0
:10113400046801F0F0010909595C34FA01F14160D5
:10114400546804F4E064240A1C5D31FA04F48460F5
:10115400546804F46054E40A1C5DE140C1605268C0
:1011640002F4404203EB92331B7CB1FBF3F10161C7
:1011740010BD00BF0010024000127A00001BB7002F
:1011840000093D00808D5B0000010020044B11B17B
:101194005A69104302E05A6922EA00005861704714
:1011A40000100240044B11B19A69104302E09A699D
:1011B40022EA00009861704700100240044B11B10C
:1011C400DA69104302E0DA6922EA0000D861704764
:1011D40000100240044B11B1DA68104302E0DA68EF
:1011E40022EA0000D860704700100240044B11B19D
:1011F4001A69104302E01A6922EA00001861704774
:10120400001002404309012B074A01D1136803E08F
:10121400022B0CBF136A536A00F01F0033FA00F06C
:1012240000F00100704700BF0010024007B5002322
:1012340001933120FFF7E6FF019B01330193019BEA
:10124400B3F5A06F01D00028F3D03120FFF7DAFF07
:10125400003818BF01200EBD5A4B10B5984207D173
:101264004FF400600121FFF7B5FF4FF40060A2E0E6
:10127400B0F1804F05D101200146FFF7B7FF0120EF
:1012840007E0514B984209D102200121FFF7AEFF3C
:1012940002200021BDE81040FFF7A8BF4B4B984245
:1012A40005D104200121FFF7A1FF0420F1E7484BF9
:1012B400984205D108200121FFF798FF0820E8E7AC
:1012C400444B984205D110200121FFF78FFF1020D5
:1012D400DFE7414B984205D120200121FFF786FF2B
:1012E4002020D6E73D4B984207D14FF4005001210E
:1012F400FFF770FF4FF400505DE0394B984207D17F
:101304004FF400200121FFF765FF4FF4002052E065
:10131400344B984207D14FF480100121FFF75AFF54
:101324004FF4801047E0304B984207D14FF400103F
:101334000121FFF74FFF4FF400103CE02B4B984284
:1013440005D140200121FFF751FF4020A1E7284BA0
:10135400984205D180200121FFF748FF802098E7BB
:10136400244B984207D14FF480700121FFF73EFFD0
:101374004FF480708DE7204B984207D14FF48030B2
:101384000121FFF727FF4FF4803014E01B4B9842F4
:1013940007D14FF400300121FFF71CFF4FF4003058
:1013A40009E0174B98420BD14FF480200121FFF73D
:1013B40011FF4FF480200021BDE81040FFF70ABF61
:1013C40010BD00BF002C0140000400400008004094
:1013D400000C0040001000400014004000340140A4
:1013E400004C0140005001400054014000180040EE
:1013F400001C004000200040004001400044014027
:1014040000480140204A038890429BB20ED01F4AF4
:1014140090420BD0B0F1804F08D01D4A904205D0C5
:101424001C4A904202D01C4A904206D14FF68F7259
:1014340003EA02024B8842EA0303184A904209D0A5
:10144400174A904206D04FF6FF4203EA0202CB88C5
:1014540042EA030303808B8883850B8803850A4B48
:1014640098420BD0094B984208D00E4B984205D0B5
:101474000D4B984202D00D4B984201D10B7A038652
:1014840001238382704700BF002C014000340140D7
:101494000004004000080040000C00400010004020
:1014A4000014004000400140004401400048014055
:1014B400038C30B523F010031B041B0C0384038C32
:1014C4008288048B0D8824F4E6442404240C23F03D
:1014D400200344EA05241B040D891B0C43EA05136D
:1014E4004D8892B243EA0513134DA4B2A8429BB2AD
:1014F40002D0124DA84219D14FF67F7503EA0505B3
:101504004B8945EA03154FF6BF7305EA03038D883B
:1015140043EA05134FF2FF3502EA05058A899BB2B7
:1015240045EA8205CA8945EA820292B28280CA8863
:1015340004830287038430BD002C01400034014041
:101544004FF0FF33838000230380C3804380037202
:1015540070470023038043808380C38003814381D9
:101564008381C381704721B103889BB243F0010397
:1015740004E0038823F001031B041B0C0380704761
:1015840021B103889BB243F0800304E0038823F075
:1015940080031B041B0C03807047038B23F400633C
:1015A4001B041B0C43EA01239BB203837047000016
:1015B40040F0BE60024B40F42020D860704700BF6A
:1015C40000ED00E0C37810B5EBB1154B4178DB6852
:1015D4008478DB4303F4E0631B0AC3F10402914003
:1015E4000F22DA4022400A430E4B01781201CB1835
:1015F400D2B283F8002303780122590903F01F03B0
:1016040012FA03F307E003780122590903F01F03D8
:1016140012FA03F32031034A42F8213010BD00BF0F
:1016240000ED00E000E100E010B5064C18B92368B5
:1016340001221A8210BD044B1B681B68984720685E
:101644000A3010BDB80A0020B40A002010B5064CB8
:1016540018B9236801221A8210BD044B1B689B68C9
:10166400984720680C3010BDB80A0020B40A002046
:1016740008B5264B18B91B6802221A8208BD2448F3
:10168400002202801A68117811F07F0113D1527A76
:10169400017812F0200F14BF41F0020121F0020181
:1016A400017012F0400F027814BF42F0010222F0E0
:1016B4000102027022E0012927D0022924D15279A3
:1016C40002F00F0312F0800F4FEA830308D003F1F6
:1016D400804303F5B8431B6803F03003102B08E084
:1016E40003F1804303F5B8431B6803F44053B3F597
:1016F400805F03D1037843F001030370054B1B683B
:101704001B699847024808BD002008BDB80A00209C
:10171400880A0020B40A0020234A2DE9F8431468FB
:101724009046238A267A214FA3B9042E12D1204948
:101734000A78012A0AD11F4A10681F4A80B2821807
:101744005200136030223A800B7027E010233B8054
:10175400072623E0A58AAB428CBF022604269D42BD
:1017640028BF1D462846A36998478146002000F0FB
:1017740087FD2A460146484600F08AFC2946002097
:1017840000F09AFD238A30225B1B2382638A3A800D
:10179400ED180A4B4FF4405265821A80D8F8003095
:1017A4001E72BDE8F88300BFB80A0020C00A0020FA
:1017B40094010020505C004002300020BE0A00204A
:1017C40010B50B4B0B491B684978DA7891420AD360
:1017D400997841B99C8844B99A72074B1B685B6835
:1017E4009847204610BD022010BD022010BD00BF46
:1017F400B80A0020D8000020B40A002038B50F4CE5
:101804000F4B22681B6850799B69D17898472368ED
:101814009A7A7AB170B91A7962B99D7865B9094B27
:101824001B68DB689847236828465A79DA72DA78A5
:101834001A7338BD022038BD022038BDB80A002012
:10184400900A0020B40A002010B5364B1B681878A3
:1018540010F07F0004D15A7A22F020025A7210BD8F
:1018640002285AD15A88002A5AD11A79002A57D103
:101874005A792D4C22F08000810001F1804101F55C
:10188400B8410968247812F0800F14BF01F03001C8
:1018940001F44051A04240D200293ED09B7A002B53
:1018A4003DD012F0800F4FEA800411D004F180443F
:1018B40004F5B844236803F03003102B27D1C4B2D5
:1018C400204600F0A4FC2046302100F020FC1EE05D
:1018D40004F1804404F5B844236803F44053B3F599
:1018E400805F14D128B9114B93F82C1000F0F2FC4E
:1018F40001E000F078FC22684BF68F7302EA0303E0
:1019040083F4405343F4004343F080032360084BC3
:101914001B685B699847002010BD022010BD02209F
:1019240010BD00BFB80A0020D8000020A800002085
:10193400B40A002010B5234B234C196824784A7943
:1019440022F08003980000F1804000F5B840006860
:1019540012F0800F14BF00F0300000F44050A34296
:101964002BD24C884CBB40B3897A41B312F0800F20
:101974004FEA83030BD003F1804303F5B84319689E
:1019840048F6BF7201EA020282F010020AE003F193
:10199400804303F5B84319684BF68F7201EA0202DB
:1019A40082F4805242F4004242F080021A60074BF3
:1019B4001B689B699847002010BD022010BD0220BF
:1019C40010BD00BFB80A0020D8000020B40A0020CF
:1019D40008B5064B1B685A7A42F020025A72044B2F
:1019E4001B68DB699847002008BD00BFB80A0020C7
:1019F400B40A0020054B1A68538A18B98988CB1A8F
:101A0400138270470868C018704700BFB80A0020E6
:101A140008B50C4B002093F82C1000F05BFC0A4B2B
:101A24001B68187A082806D1084B4FF480521A8094
:101A3400074B10221A80A0F10903584240EB03001F
:101A440008BD00BFA8000020B80A0020BE0A00207C
:101A5400C00A00202DE9F0412C4D2C68237A022B7A
:101A64004DD0042B4BD0032B01D0052B41D1A369BE
:101A7400228AABB1A2B1A68A964228BF1646304646
:101A84009847238A07469B1B2382638A0020F31806
:101A9400638200F003FC32460146384600F00FFB37
:101AA400238A53B11A4B4FF4405200201A80014646
:101AB40000F002FC174B30221A80238AA28A9A4231
:101AC40002D82B68032202E01BB12B6805221A728C
:101AD4000CE02A68062111720F4A11680F4A89B274
:101AE4008A18520013600B4B30221A802B681B7A21
:101AF40006E0072B03D10A4B1B68DB6898470823D1
:101B04002A681372BDE8F041FFF782BFB80A0020CB
:101B1400BE0A0020C00A0020505C004002300020B1
:101B2400900A00208A4BF7B51A688A4C8A4B92B205
:101B3400D31826685B001F68337A092B1AD0BFB20A
:101B440007F1005707F540577F003D4615F8013B64
:101B540033707B780A377370B5F8030000F0EAFB42
:101B64007080B5F80700266800F0E4FBB0802368B5
:101B74007F88DF80226801231372D3885578002B75
:101B840060D1137813F07F032ED1092D02D1FFF712
:101B940017FE3BE0052D0DD192F90330002B4DDBF0
:101BA4009378002B4AD19388002B47D1937A002B4A
:101BB40035D043E0032D0BD1D378012B27D1938863
:101BC4002BBB537A13F0200F21D0FFF701FF1DE048
:101BD400012D1CD1D378012B19D19388BBB9537A29
:101BE40013F0200F13D00AE0012B04D10B2D0ED1DA
:101BF400FFF704FE0AE0022B09D1012D02D1FFF701
:101C040023FE03E0032D02D1FFF794FE38B1534BBA
:101C140028461B685B69984703280DD070B94C4B64
:101C240030211A684E4B92B2D3185B0000221A601E
:101C34004C4B1980062302E0092300E008232268A4
:101C44001372DEE0062D16D1137813F07F0F40F0E7
:101C540093809278414B012A02D11B68DB696DE0C5
:101C6400022A02D11B681B6A68E0032A40F08480C0
:101C74001B685B6A62E0002D3AD1518800297BD150
:101C8400536823F47F43B3F5003F75D1137813F001
:101C94007F0303D19388002B4CD06DE0012B0CD132
:101CA4002E4B50791B689B699847002864D1294BB7
:101CB4001B689B7A002B3DD15EE0022B5CD15379EB
:101CC400294803F00F018A0002F1804202F5B8426C
:101CD4001268007813F0800F14BF02F0300202F48F
:101CE4004052814248D213F0700F45D112BB43E0F9
:101CF400082D04D1137813F07F0F1DD03CE00A2D7A
:101D04003AD1137803F07F03012B35D1937A002B5A
:101D140032D0518800292FD1536823F47F43B3F57F
:101D2400803F29D10D4B50791B689B69984718BB9C
:101D34000E4B04E00E4B02E00E4B00E0E3B12268D0
:101D44000021518293610020984700201FE000BFCA
:101D5400505C0040B80A002004300020900A0020A3
:101D640002300020C00A0020D800002051160008CC
:101D7400751600082D160008244B22681B6850783D
:101D84001B699847032802D1214B1B6805E023688F
:101D94004FF6FF711A8A8A4201D1092203E0022810
:101DA40000D012B908221A722BE093F9001000290E
:101DB40021DAD888019001998A42144902D9019AFA
:101DC4001A8210E082420ED20B6893F82C309A42A9
:101DD40001D2002205E092FBF3F003FB102212B9BA
:101DE40001320C4B1A700A68236892F82C209A82EC
:101DF400FFF792FC05E003221A72074B4FF440529E
:101E04001A8003B0BDE8F040FFF702BE900A00203C
:101E1400B80A002094010020BE0A002070B50F4BC0
:101E24001D78002312E0DCB2A20002F1804202F528
:101E3400B842166844F4004440F60F7144F080043C
:101E440006EA010144EA010111600133AB42EAD31D
:101E5400034B40F08000186070BD00BFD800002024
:101E64004C5C004010B5134C23681A7A022A01D046
:101E7400042A04D1FFF750FC23681B7A14E0062AD5
:101E840011D15A78052A0AD11A7812F07F0F06D197
:101E9400D878FFF7C3FF084B1B681B6A9847074BAA
:101EA4001B689B689847082322681372BDE810409A
:101EB400FFF7AEBDB80A0020B40A0020900A002043
:101EC4007047000008B5074A074B0849136002220F
:101ED4001A72074B074A1360074A1B681160984738
:101EE40008BD00BFB80A0020980A0020DC000020CA
:101EF400A8000020900A0020B40A002073B5002333
:101F0400ADF80630A7E01388584C03F00F03237094
:101F1400002B6FD1564C574E2368574D9BB23380DC
:101F2400338803F030032B80338803F44053338029
:101F340021684BF6BF7301EA030383F4005383F073
:101F4400200343F4004343F080032360138813F019
:101F5400100F08D1226848F60F7302EA03032360C6
:101F6400FFF780FF1EE023689BB2ADF80630BDF892
:101F7400063013F4006F08D0226840F68F7302EA2B
:101F840003032360FFF7CEFD0CE0BDF806301BB25F
:101F9400002B60DA226840F68F7302EA03032360A1
:101FA400FFF758FD22684BF6BF7302EA0303328839
:101FB40002F4805292B20AB183F48053328802F45C
:101FC400005292B20AB183F400532A8802F010023C
:101FD40092B20AB183F010032A8802F0200292B26E
:101FE4000AB183F02003254A43EA0202204B92B24D
:101FF4001A603AE09B0003F1804303F5B8431A6882
:1020040092B2ADF80620BDF8062012B2002A0BDA0F
:10201400196840F68F7201EA02021A602278184B9E
:10202400013A53F822309847BDF8063013F0800F78
:1020340011D0237848F60F729B0003F1804303F517
:10204400B843196801EA02021A6022780D4B013A7A
:1020540053F8223098470C4B0C4A1B689BB21380F0
:1020640013881BB2002BFFF64EAF7CBD940A0020F0
:10207400005C0040BE0A0020C00A00208080FFFFF0
:102084005400002038000020445C0040720200200C
:1020940001F10051013201F5405110B549005208D7
:1020A40008E010F8014C10F8023C013A43EA04231A
:1020B40021F8043C02300431002AF2D110BD01F1B0
:1020C4000051013201F540514900520804E051F831
:1020D400043B013A20F8023B002AF8D17047000083
:1020E4004FF6F873024A00EA03031360704700BF17
:1020F400505C0040800000F1804000F5B840026868
:1021040048F68F1302EA03030B4303607047800011
:1021140000F1804000F5B840026848F6BF7302EA57
:10212400030301F0100292B20AB183F0100301F02C
:10213400200189B209B183F0200343F4004343F042
:10214400800303607047800000F1804000F5B840D0
:1021540002684BF68F7302EA030301F4805292B2D1
:102164000AB183F4805301F4005189B209B183F4B4
:10217400005343F4004343F080030360704780003E
:1021840000F1804000F5B840026848F6BF7302EAE7
:10219400030383F0300343F4004343F080030360FC
:1021A4007047800000F1804000F5B84002684BF6AB
:1021B4008F7302EA030383F4405343F4004343F070
:1021C400800303607047800000F1804000F5B84050
:1021D400026840F60F6302EA030343F4004343F04A
:1021E400800303607047800000F1804000F5B84030
:1021F400036813F4804F09D0026840F60F7302EAB3
:10220400030343F4404343F08003036070478000BA
:1022140000F1804000F5B840036813F0400F09D086
:10222400026840F60F7302EA030343F4004343F0E9
:10223400C003036070470000074B4FF6FE721B6833
:1022440001EA02029BB203EBC00303F1005303F55E
:1022540040535B001A607047505C0040064B074ACD
:102264001B689BB203EBC0039A184FF6FE7352002F
:1022740001EA030313607047505C004004300020FF
:10228400054B1B689BB203EBC00303F1005303F53A
:1022940040535B0018887047505C0040044B054A6B
:1022A4001B689BB203EBC0039A1852001088704756
:1022B400505C004004300020044B054A1B689BB26C
:1022C40003EBC0039A18520011607047505C004041
:1022D400023000200D4B1A680D4B92B2D31803EB59
:1022E400C0035B003E2909D94A0911F01F0F01D12F
:1022F400013A92B2920242F4004205E04A0811F017
:10230400010F18BF013292021A607047505C0040FE
:1023140006300020054B064A1B689BB203EBC00342
:102324009A18520010688005800D7047505C004078
:1023340006300020C3B2000A40EA032070470000C0
:10234400044B0020044A18604FF406431380034AE8
:1023540013607047445C0040BC0A0020405C0040AD
:1023640070B500F07F0528460E461446FFF788FF37
:10237400A4B2014622463046FFF78AFE284621468B
:10238400FFF79AFF002070BD70B500F07F05284666
:102394000E46FFF7BFFF04462846FFF77FFF22469D
:1023A40001463046FFF78BFE204670BD37B50C4D15
:1023B4000446012155F82000FEF7F4FE10238DF8A1
:1023C40007300D3B05EB44058DF80630054B2D8A8F
:1023D40053F8240001A9ADF80450FEF76BFD3EBD8F
:1023E400943A000814010020044A054B53F82030A5
:1023F40002EB4000028A1A61704700BF943A000859
:1024040014010020044A054B53F8203002EB40002D
:10241400028A5A61704700BF943A000814010020F0
:10242400054B064953F8203001EB4000DA68018A75
:1024340081EA0202DA60704714010020943A00082D
:1024440008B5054A054B02EB800203EB4003198FE4
:102454001069FEF77EFD08BD14010020943A0008BF
:102464002DE9F3411D4E84003519D5F88C3007460B
:10247400D5F8880088461843012140F00100FEF792
:1024840091FED5F890000121FEF798FE06EB470572
:1024940018238DF80730B5F8943001A9ADF804304D
:1024A40003238DF806300E4B1C19206BFEF702FD3A
:1024B4000423B5F896500DEB0301606B8DF80730DB
:1024C400ADF80450FEF7F6FCA06B4146FEF7BCFBEA
:1024D400A06B0121FEF714FCBDE8FC81943A0008CE
:1024E40014010020384B82B01A6842F001021A60CD
:1024F4005968364A01EA02025A601A6822F0847264
:1025040022F480321A601A6822F480221A605A680F
:1025140022F4FE025A604FF41F029A6000220192D4
:1025240000921A6842F480321A60274B1A6802F447
:1025340000320092019A01320192009A1AB9019A6A
:10254400B2F5A06FF1D11B6813F4003318BF012357
:102554000093009B012B34D11D4B1A6842F01002EA
:102564001A601A6822F003021A601A6842F0020222
:102574001A60154B5A685A605A685A605A6842F48D
:1025840080625A605A6822F47C125A605A6842F493
:10259400E8125A601A6842F080721A600A4B1A688C
:1025A40012F0007FFAD05A6822F003025A605A6887
:1025B40042F002025A60044B5B6803F00C03082BE0
:1025C400F9D102B0704700BF001002400000FFF8CC
:1025D400002002407047002300E00133C25C002A5F
:1025E400FBD11846704700000A2806DC00F1805031
:1025F40000F5D8508000008805E02A2805DC044B4B
:10260400C3189B00188880B270470020704700BF31
:10261400051B00102DE9F7430F46904699460646E0
:10262400002518E00E4C0F4AB9F1000F02D02388A0
:10263400128801E0138822880092626830B2019205
:102644003946202200F0C6FB074A63681278013538
:1026540002FB0366B6B24545E4DBBDE8FE8300BF7A
:1026640050010020980100206801002010B5435C4F
:102674004018C278407803F01C0402F0F80242EAE1
:10268400C42200F0F80042EA401040EA531010BDA2
:10269400014B5860704700BF500100200220FFF733
:1026A400F7BF0000014B5868704700BF500100207D
:1026B400014B1880704700BF980100202DE9F04FAE
:1026C40087B092469846BDF94090BDF84470BDF875
:1026D40048600546002800F03581028803FB09F4B0
:1026E40044F24D239A4240F00681B0F806B0BBF1A3
:1026F400000F40F00081019100F0ACFB6B89039066
:1027040003F0FF02D20102EB5323043005EB430331
:10271400C0B2029300F098FB0199424608464B462A
:10272400514601F01BF800F0ACFDEB8BAA8B03F4CF
:102734007F4303EB1223102B0BD003DC082B40F058
:10274400D28022E0B3F5847F4BD0B3F5447F40F0D0
:10275400CA804FEA16294FF0000813E0B5F86C0060
:10276400B84206D0C0B200F08FFDB5F86C00000A84
:1027740003E0F0B200F088FD484600F085FD08F162
:1027840001080235A045E9DBADE0363526E0029AC2
:10279400284632F80B10090A8900FFF767FFB84290
:1027A40014BF8046B0465FFA88F000F06DFD4FEA32
:1027B4001820C0B200F068FD029B284613F80B10E5
:1027C4000BF1020B8900FFF751FF8046C0B200F005
:1027D4005BFD4FEA1820C0B200F056FDA345D6DBDE
:1027E40081E0320A05F1360A0492D94679E0029A68
:1027F4000FFA89F332F813505FEA152B05F0FF0541
:102804004DD109F10109ADB21FFA89F975B906E094
:10281400F0B200F039FD0498013C00F035FD94FB62
:10282400F8F308FB1343002BF2D15AE02BB2012B2F
:1028340059D0E41A029B0FFA89FB03EB4B0B3BF8CC
:10284400021B5046090A8900FFF710FF0346C0B275
:10285400019300F019FD019B013D1B0AD8B2ADB2F2
:1028640000F012FDA5B11BF8021C50468900FFF7C9
:10287400FDFEB84214BF03463346D8B2019300F0BC
:1028840003FD019B013D1B0AD8B200F0FDFCADB273
:1028940009F101091FFA89F9002DD0D121E0A9001D
:1028A4005046FFF7E3FEB84214BF054635462B0AEF
:1028B4001FFA8BFBDBB2CBEB0404059309E0E8B20F
:1028C40000F0E2FC059800F0DFFC0BF1FF3B1FFA7F
:1028D4008BFB0FFA8BF3002BF1DC09F101091FFAD2
:1028E40089F9002C83DC00F0BBFC039807B0BDE839
:1028F400F04F00F0A9BA084642464B46514600F054
:102904002DFF4FEA162900F0BCFC4FF0000812E03E
:1029140035F8020BB84206D0C0B200F0B5FC35F869
:10292400020C000A03E0F0B200F0AEFC484600F0EE
:10293400ABFC08F10108A045EADB07B0BDE8F04FA5
:1029440000F08EBC07B0BDE8F08F1FB5BDF918408C
:1029540000944FF6FF7401940294FFF7AFFE1FBD7D
:102964002DE9F04F85B002919DF838101C460746BA
:102974009246DDF83C90039100F06CFA10F0010FE0
:1029840014BF384B384BB3F800B01CB95046FFF7AE
:1029940022FE0446B4F1FF3F344B354E04D11A787D
:1029A400746854439BFBF4F41D7872681FFA87F82B
:1029B4005543EDB204FB05831BB25B450EDDCBEB47
:1029C400030090FBF5F105FB110028B9C3EB0B03E1
:1029D40093FBF5F3E41801E0C9436418254B1B7815
:1029E4000BB1032A05DD384602992246039BFFF703
:1029F40011FE5046FFF7EFFDA042B4BF8346A34645
:102A0400B9F1010F03D0B9F1020F08D10AE0CBEB01
:102A140004046C4304EBD47408EB6407BFB24FF0B6
:102A2400000919E0CBEB040405FB0487F6E7039BDC
:102A34001AF80920104913B13388098801E00B887A
:102A440031880091716838B20191029900F0C2F99D
:102A5400EF19BFB209F10109D945E8DB05B0BDE8BA
:102A6400F08F00BF900E0020CC0A002068010020E7
:102A7400500100208E0E002098010020034B4FF0DF
:102A8400FF321A80024B00221A8070475001002046
:102A94009801002010B5034C208003486280018017
:102AA400438010BDBC010020640100202DE9F04FDB
:102AB400A54D93B00E93B5F900301E9C9842A8BF63
:102AC40003469BB21EB20593A04BBDF8742093F845
:102AD40004C008920CFB04FCB5F90270B3F90020A1
:102AE40093F805A0B942A8BF0F46921B0AFB04FA4B
:102AF4009445B8BF6246BFB2B3F902C00FFA87F972
:102B0400C9EB0C0CE245B8BFD44692B21FFA8CFC58
:102B14008945BDF87080AA80BB46A5F806C003DDD0
:102B2400CB1B9C44A5F806C0864205DDDDF814C025
:102B3400CCEB00039A18AA80B5F90420002A40F3CC
:102B44002181814BDB880FFA83FCBCF1000F40F339
:102B54001981791A89B292FBF4F2CB18DDF820B00E
:102B640092B29BB2361A0F920A938AB24FEA182392
:102B74004FEA1B2B96FBF4F609920693CDF830B07E
:102B8400F7E0734A137873B1032C0CDCDDF814C03E
:102B9400704A04FB06C00092B5F9063000B239B29F
:102BA40022B200F00BFD059B39B204FB063022B2C1
:102BB400B5F9063000B200F0D1FD00F062FB33B28B
:102BC4000E995B000E9AC9180133D3180B910D931B
:102BD4004FF0000910961197CDF810800394BDE0D2
:102BE400DDF824C033B20FFA8CF293423ADB0A992F
:102BF4000AB2934236DA564B0B991A780B7812B113
:102C0400039A032A11DD1F4215BF049BDDF820C07F
:102C1400D8B25FFA8CF000F037FB0B990C980B7864
:102C2400069A1F4218BF10461AE01F4205D0049BA3
:102C3400D8B200F029FB069812E0B5F906300FFA75
:102C44008BF8D04403FB0983424C14F8130000F0C2
:102C54001BFBB5F9063003FB098834F81800000A99
:102C640000F012FB01360AF1010AB6B203998A4553
:102C7400B6DB079A7F08013A079207D1802758E00C
:102C84000823079380274FF0000B00E0B3465E460D
:102C94004FF0000AEAE7DDF824C00FFA8BF30FFACD
:102CA4008CF293423ADB0A990AB2934236DA284B01
:102CB4000D991A780B7812B1039A032A11DD1F4279
:102CC40015BF049BDDF820C0D8B25FFA8CF000F089
:102CD400DBFA0D990C980B78069A1F4218BF104620
:102CE4001AE01F4205D0049BD8B200F0CDFA069832
:102CF40012E0B5F906300FFA86F8D04403FB0983D5
:102D0400144C14F8130000F0BFFAB5F9063003FBB5
:102D1400098834F81800000A00F0B6FA0BF1010B28
:102D24000AF1010A1FFA8BFB03998A45B3DB7F087A
:102D34005E46064A5379C3F110039F420CD9B34649
:102D44004FF0000AF0E700BFBC010020640100203E
:102D54008E0E0020CE0A002009F10109039B99453B
:102D64008EDB109E119FDDF810801C4600F078FA6F
:102D74000136DDF83CB0B6B232B20FFA8BF39A42A8
:102D8400FFF6FFAE13B0BDE8F08F00BF2DE9F041B0
:102D9400BDF8184015461E464FEA142800F0DEFC24
:102DA40000F06FFA0CE0E0B200F06EFA404600F07A
:102DB4006BFA013FBFB23BB2002BF4DC013DADB274
:102DC4002BB2002B01DD3746F5E7BDE8F04100F0FA
:102DD40047BA0000F0B50E4D85B0AE68BDF8287056
:102DE4003479A24212D3767996420FD3141B094A3E
:102DF40095F804E0156800930B9B4FEA4E06029386
:102E0400724604FB06530197FFF750FE05B0F0BD70
:102E140064010020C80A0020B0F5805F034B36BF70
:102E24004FF4004218601A60704700BF7001002020
:102E3400014B00221A60704770010020014B18708A
:102E4400704700BF62010020014B187000F08EBB78
:102E5400A9010020014B1878704700BFA901002088
:102E64002DE9F04116461D4604460F46FFF7F2FFD2
:102E740010F0010FBDF81880184B194A0DD01B88AB
:102E840019B28C42B4BF2046084634188C42C4BFE1
:102E9400C0EB030636B213880CE012881B8811B20B
:102EA4008C42B4BF2046084634188C42C4BFC0EBE1
:102EB400020636B21AB29742B4BF394611466C18AC
:102EC4009442C4BFC1EB03052DB232462B46CDF864
:102ED4001880BDE8F041FFF759BF00BF900E0020F5
:102EE400CC0A002037B50546FFF7B4FF044600209E
:102EF400FFF7AAFF00200146F0224FF4A0730095CB
:102F0400FFF744FF204603B0BDE83040FFF79CBF05
:102F1400114B10B51A7882421DD91C2202FB0033D2
:102F24000E4C1A1DA2605A79D96822719A79D879FF
:102F340062710B4A1160FFF7ABFB637913F0010F69
:102F440006D0FFF7AFFB02280CBF0220012000E0EF
:102F54000220044B187010BD2C5A00086401002094
:102F6400C80A0020C50A00200020FFF7D1BF0000D6
:102F7400382837B504461DD100204FF6FF750146A9
:102F84002246F0230095FFF76BFF00200146F02254
:102F940023460095FFF764FF0020B821F022234662
:102FA4000095FFF75DFFB82000212246F02300952D
:102FB400FFF756FF0E4B00201C70C4F17804640028
:102FC400A4B20C4BA1B219800B4B024619800B4BD7
:102FD4005B79E41A0A4B1C800A4B19800A4B19804E
:102FE40009B20B4603B0BDE83040FFF753BD00BF44
:102FF400C40A0020CC0A0020900E002064010020A6
:10300400AA0100205E01002060010020014B18701D
:10301400704700BF8E0E002070B5202096B00121AD
:10302400FEF7C0F840200121FEF7BCF81825032460
:103034004CF2030315A93848ADF854308DF85750B5
:103044008DF85640FDF736FF4FF4F06315A9334869
:10305400ADF854308DF857508DF85640FDF72AFFDF
:1030640020200121FEF79EF841F2300315A92A48D9
:10307400ADF85430FDF71EFF20200121FEF792F831
:103084002835102615A92448ADF854508DF85760FA
:10309400FDF710FF20200121FEF784F87D3415A9E7
:1030A4001D48ADF854408DF85760FDF703FF2946DD
:1030B40001221948FDF75AFF002221461648FDF760
:1030C40055FF01214FF48070FEF760F802230E9340
:1030D4000F9310930333119312931393053B14939B
:1030E4007C3C019302930393049305930693079303
:1030F4004FF4805209930A930B9368460EAB0094E5
:1031040008920C930D93FDF763FE20460121FDF711
:10311400BFFE16B070BD00BF00140140001801408E
:10312400F7B520200121FEF73DF84FF40053ADF828
:10313400043018238DF8073001A9153B20488DF879
:103144000630FDF7B7FE01200146FEF72BF80121FA
:103154004FF480501B4CFDF70FFF01210420FEF7B4
:103164002DF81948FEF778F804F10A072046FEF70F
:10317400E7F93846FEF7EDF900254FF0FF33214615
:103184001148A3802580E5806580FEF73BF9602324
:1031940063810E4B01261B8839460B482382A68186
:1031A4006582FEF785F929460748FEF7F6F93146A8
:1031B4000548FEF7E5F904483146FEF7D4F9FEBDAB
:1031C40000140140CC0100200008004070010020E0
:1031D4004FF0D04300221A701870034B0A0AC9B288
:1031E4001A701970704700BF000002684FF0D04396
:1031F40000221A701870034B18781B7843EA0020D9
:10320400704700BF0000026810B540210022084842
:10321400FDF7ACFE4FF49670FFF7DCF9044840214B
:103224000122FDF7A3FE6420BDE81040FFF7D2B9E8
:1032340000140140084B07B5B3F900103123C83915
:1032440001EBD17149100093044809B24FF4807224
:103254009733FFF77AFB0EBDCC0A0020605C0008B0
:1032640070470000014B1870197070470000026825
:103274004FF0D04300221A70187070470320FFF7F4
:10328400F7BF2220FFF7F4BF014B1870704700BF4F
:1032940000000268014B1868704700BF0000026814
:1032A40038B504462220FFF7E3FFFFF7F3FFFFF7EB
:1032B400F1FFFFF7EFFFC5B2FFF7ECFF2368C0B2E1
:1032C40005F0070242EAC0021A70236820F01F00CA
:1032D40040EAD5055D7023680233236038BD10B51C
:1032E40010200021FFF774FF11200721FFF770FF62
:1032F40012200021FFF76CFF00211320FFF768FF65
:10330400C820FFF767F9102041F29061FFF760FFD2
:10331400112040F22121FFF75BFF3220FFF75AF919
:1033240018211220FFF754FF3220FFF753F913201E
:103334004FF4C051FFF74CFF29202A21FFF748FF23
:103344000B212B20FFF744FF3220BDE81040FFF78C
:1033540041B910B530200421FFF73AFF312007218D
:10336400FFF736FF32200621FFF732FF352040F207
:103374000621FFF72DFF36204FF48161FFF728FF68
:10338400372040F20751FFF723FF38204FF4007134
:10339400FFF71EFF392040F20771FFF719FF3C20A9
:1033A40040F20451FFF714FF3D2040F60271BDE8DE
:1033B4001040FFF70DBF10B5E32043F20801FFF7FB
:1033C40007FFE7201221FFF703FFEF2041F231212D
:1033D400FFF7FEFE01210020FFF7FAFE3220FFF77F
:1033E400F9F801204FF48071FFF7F2FE02204FF448
:1033F400E061FFF7EDFE032041F22801FFF7E8FE4C
:1034040004200021FFF7E4FE082040F20221FFF728
:10341400DFFE09200021FFF7DBFE0A200021FFF771
:10342400D7FE0C200021FFF7D3FE0D200021FFF76B
:10343400CFFE0F200021FFF7CBFEFFF750FFFFF771
:1034440088FF50200021FFF7C3FE5120EF21FFF732
:10345400BFFE52200021FFF7BBFE532040F23F1174
:10346400FFF7B6FE60204FF42741FFF7B1FE61205D
:103474000121FFF7ADFE6A200021FFF7A9FE80209D
:103484000021FFF7A5FE81200021FFF7A1FE822085
:103494000021FFF79DFE83200021FFF799FE842081
:1034A4000021FFF795FE85200021FFF791FE902073
:1034B4001021FFF78DFE92200021FFF789FE932053
:1034C4000321FFF785FE95204FF48871FFF780FEF6
:1034D40097200021FFF77CFE98200021FFF778FE5B
:1034E400072040F23311FFF773FEE42041F230412C
:1034F400FFF76EFE20200021FFF76AFE2120002145
:10350400BDE81040FFF764BE0020FFF76FBE000067
:10351400134A08B5F0231380124A0A201380FFF7D8
:1035240059F8FFF779FDFFF76FFEFFF744FF00201E
:10353400FFF71EFDFFF718FD0020FFF767FD4FF6AC
:10354400FF70FFF7CFFC0320FFF74EF8FFF764FC92
:10355400FFF7E6FDFFF7D8FF034B188008BD00BF57
:10356400CC0A0020900E0020E801002010B504468B
:10357400FFF784FE601E06280ED8DFE800F004077B
:103584000A10131619001020302113E010201821FE
:1035940010E0102000210DE0102028210AE0102066
:1035A400202107E01020382104E01020014601E02A
:1035B40010200821BDE81040FFF754BE2DE9F04764
:1035C4001E46624B0D461B781446032B00F2BC804A
:1035D400DFE803F002325D8A5D4B5E4A1B78B2F885
:1035E40000805D18984408F1FF38C0EB08001FFA0A
:1035F40080F8ADB200271BE020204146FFF7E8FD2C
:10360400AA464FF000090CE051462120FFF7E0FDE7
:1036140008A8FFF745FE0AF1010A09F101091FFA9A
:103624008AFAB145F0D308F1FF3801371FFA88F858
:10363400A742E1D3BDE8F087454B002793F800800B
:1036440008EB01058044ADB21FFA88F81BE0212085
:103654004146FFF7BDFDAA464FF000090CE0514674
:103664002020FFF7B5FD08A8FFF71AFE0AF1010AAA
:1036740009F101091FFA8AFAB145F0D308F10108EA
:1036840001371FFA88F8A742E1D3BDE8F087304B31
:10369400314A1B78128818189B18013B5D1A1FFACF
:1036A40080F8ADB200271BE020204146FFF790FDD3
:1036B400AA464FF000090CE051462120FFF788FD8F
:1036C40008A8FFF7EDFD0AF1FF3A09F101091FFA15
:1036D4008AFAB145F0D308F1010801371FFA88F8D6
:1036E400A742E1D3BDE8F087194B1A4A1B78128828
:1036F40000279A18013A551A174AADB2B2F8008059
:103704004344013B181A1FFA80F81BE0212041466C
:10371400FFF75EFDAA464FF000090CE05146202059
:10372400FFF756FD08A8FFF7BBFD0AF1FF3A09F1C0
:1037340001091FFA8AFAB145F0D308F1FF380137BD
:103744001FFA88F8A742E1D3BDE8F087A901002059
:10375400C40A0020CC0A0020900E00202DE9F04776
:103764009846714B04461B780D4603F00303022B65
:1037740016466E4F5FD0032B8DB200F08F80012B65
:1037840032D0DFF8B0913A78B9F8003084B2D31867
:103794001B1B9E1B5020B1B2FFF71AFD3B78B9F8F2
:1037A40000105120C9180139091B89B2FFF710FD17
:1037B40039785220691889B2FFF70AFD3B78532003
:1037C400013BEB1898441FFA88F1FFF701FD3B78A1
:1037D400B9F800202020D318013B1C1BA1B2FFF72D
:1037E400F7FC3B78ED1856E039785020691889B217
:1037F400FFF7EEFC3B785120013BEB1898441FFA8D
:1038040088F1FFF7E5FC3978A4B26118522089B237
:10381400FFF7DEFC3B785320013BE3189E19B1B25D
:10382400FFF7D6FC3B782020ED18A9B2FFF7D0FCB7
:103834003B78E41871E0397884B26118502089B279
:10384400FFF7C6FC3B785120013BE3189E19B1B247
:10385400374EFFF7BDFC3A783388ADB2D3185B1B03
:10386400C8EB030852201FFA88F1FFF7B1FC3B783C
:1038740031885320C9180139491B89B2FFF7A8FCC4
:103884003B782020E418A1B2FFF7A2FC3B783288F1
:10389400D318013B5D1B2120A9B240E0DFF89490CE
:1038A4003A78B9F800305020D3185B1BC8EB0308F2
:1038B4001FFA88F1FFF78CFC3B78B9F80010DFF8A9
:1038C4007080C9180139491B512089B2FFF780FC67
:1038D4003A78B8F80030A4B2D3181B1B9E1B5220B0
:1038E400B1B2FFF775FC3B78B8F800105320C91843
:1038F4000139091B89B2FFF76BFCB9F800203B784A
:103904002020D318013B5D1BA9B2FFF761FC3B7873
:10391400B8F80020D318013B1C1B2120A1B2BDE83C
:10392400F047FFF755BC00BFA9010020C40A0020DE
:10393400900E0020CC0A002010B50446002832D096
:103944000020FFF77BFA0020FFF712FB1D4BF0214C
:1039540019801D4B4FF4A0721A80FFF77BFA10F008
:1039640001001A491A4C1B4A1B4B0ED02078C0F197
:10397400F00008804FF4A07111800020F0221A801A
:103984004FF4A0710246F02317E02478C4F5A07424
:103994000C80F02111804FF4A0721A80F0210246AD
:1039A4004FF4A07309E00120FFF748FA3820FFF72D
:1039B400DFFAF021204622460B46BDE81040FFF70F
:1039C40069B800BFCC0A0020900E0020AA01002094
:1039D400690100205E010020600100201201000244
:1039E400020000408304405700020102030109025F
:1039F4004300020100C03209040000010202010078
:103A040005240010010524010001042402020524F8
:103A1400060001070582030800FF09040100020AE9
:103A24000000000705030240000007058102400072
:103A340000040309042603530054004D0069006385
:103A44000072006F0065006C006500630074007212
:103A5400006F006E0069006300730032035300546A
:103A6400004D0033003200200056006900720074DB
:103A740000750061006C00200043004F004D0020E1
:103A84000050006F0072007400200020000000004D
:103A94004000000040000000400000004000000022
:103AA40001000200000800100400000010000000E3
:103AB40000010000200000002000000020000000A1
:103AC400200000004000000001000100010000028D
:103AD4000001000400080080000002000600060047
:103AE400060006000300060000000D00080009009F
:103AF40008000A000B000F00010000200001000272
:103B040000010004000800800600280006001700D9
:103B1400170028002800280004000000040000000A
:103B24000000020004000800000000000000000083
:103B340000000000000000000000000013E000008E
:103B440000000000000000E00020000000E0002071
:103B54000000000035000F8035600F800560000014
:103B640000000D800A403A6006400000000000009A
:103B7400024002A00A4015000900000000000C00E9
:103B840013001480088014000000000000000000EE
:103B940001E00000000000000000000000001F80A1
:103BA4006060000000000000000060601F800000F2
:103BB4000000000000000040034000E0034000401B
:103BC40000000200020002001FC002000200020006
:103BD4000000000060003800080000000000000041
:103BE40002000200020002000200000000000000C7
:103BF4001800180000000000000000002000180059
:103C0400060001800060000000000FC0102010209A
:103C140010200FC000000000100010201FE0100052
:103C2400100000000000184014201220112018C0B9
:103C34000000000008401020112011200EC00000D8
:103C440000000600050004C014201FE0140000005A
:103C5400080011E0112011200E20000000000F8048
:103C64001140112011200E200000000000600020EF
:103C74001820072000E0000000000EC011201120D1
:103C840011200EC00000000011C0122012200A20D2
:103C940007C0000000000000198019800000000027
:103CA40000000000000030001980098000000000BE
:103CB40002000500050008801040104000000000CC
:103CC4000500050005000500050000001040104037
:103CD40008800500050002000000000000001080BC
:103CE400144002400180000000001FE02010231057
:103CF400249017E0000010001C0017A00460178037
:103D04001C00100010201FE01120112011200EC0F3
:103D1400000000000FC010201020102008600000D8
:103D240010201FE010201020084007800000102001
:103D34001FE0112013A010201860000000001020C4
:103D44001FE0112003A00020006000000FC010201D
:103D5400102012200E60020010201FE0112001002C
:103D640011201FE010200000102010201FE0102060
:103D74001020000000000E00102010200FE0002092
:103D8400000010201FE01220030004A0186010207F
:103D9400000010201FE0102010001C000000102064
:103DA4001FE010E0030010E01FE0102010201FE0CF
:103DB40010E0070018201FE0002000000FC01020B2
:103DC400102010200FC00000000010201FE012205F
:103DD400022001C0000000000FC01020302030205D
:103DE4002FC0000010201FE012200220062009C06E
:103DF4001000000018C00920112011400E600000BE
:103E04000060002010201FE010200020006000202F
:103E14000FE01020100010200FE00020002000E030
:103E240007201800072000E0002000200FE01020E9
:103E34000F0010200FE00020102018600480030001
:103E44000480186010200020006011A01E0011A042
:103E540000600020000018601420132010A01860D7
:103E64000000000000007FE040204020000000002F
:103E74000000002001C0060038000000000000001F
:103E84000000402040207FE000000000000001000E
:103E9400008000600080010000008000800080003D
:103EA40080008000800080000000000000000020EE
:103EB40000400000000000000D00128012801280FB
:103EC4001F00100010201FE01100108010800F0050
:103ED400000000000F001080108010800980000096
:103EE40000000F001080108011201FE0100000005F
:103EF4000F00128012801280130000000000108056
:103F04001FC010A010A010A0000000000F005080DF
:103F1400508051003F80008010201FE0110000807D
:103F240010801F0010000000108010801FA01000DF
:103F34001000000000004080408040A03F8000004E
:103F4400000010201FE0020016801980108000007D
:103F54000000100010201FE010001000000010806E
:103F64001F8010801F0010801F00100010801F8011
:103F74001100008010801F00100000000F0010804E
:103F8400108010800F00000040807F80510010805E
:103F940010800F00000000000F00108010805100FE
:103FA4007F804080000010801F80110010801080EE
:103FB4000000000019001280128012800D800000A1
:103FC400000000800FC01080108010800800008066
:103FD4000F801000100008801F80100000800380F4
:103FE4000C8010000C800380008000800F80108003
:103FF4000E0010800F8000801080198006000600DB
:1040040019801080000000804180468078004C8038
:1040140003800080000019801480128011801880B1
:1040240000000000000004003BC04020000000002D
:104034000000000000003FE000000000000000005D
:10404400000040203BC00400000000000000040009
:10405400020004000400020000000000038002408B
:10406400022002400380000000000FC05020702096
:1040740010200860000000800FA0100010000880CD
:104084001FA0100000000F0012A012901290130045
:10409400000000000D0012A0129012901F201000CA
:1040A40000000D0012B0128012801F3010000000BA
:1040B4000D001290129012A01F00100000000000CA
:1040C40000000000000000000000000000000000EC
:1040D400000000000000000000000F0012A0129079
:1040E40012901320000000000F0012B01280128002
:1040F4001330000000000F10129012B01280130051
:1041040000000000100810201FE01008100000003C
:10411400000000000000000000000000000000009B
:10412400100010221FE410081000000010001C00F2
:104134001788046017881C00100010001C001784E6
:10414400046A17841C00100010201FE0113013A80B
:1041540010241860000000000D0015001F00150059
:104164001600000000001F8002401FC012401240D1
:10417400000000000F0010A0109010A00F0000001D
:1041840000000F0010A0108010A00F00000000001D
:104194000F001088109010A00F00000000800F8006
:1041A4001020101008A01F80100000800F90101025
:1041B400103008801F8010000080418046A07800E5
:1041C4004CA00380008000000FC01028102010288D
:1041D4000FC0000000200FE81020100010200FE88E
:1041E400002000003F001880168011800FC00000DE
:1041F40000000000000000000000000000000000BB
:104204003FC01C20132010E00FF0000000000880C5
:1042140005000200050008800000000020004200A4
:104224003FE002100020000000000D0012A01290D8
:1042340012901F0010000000100010281FE410024C
:104244001000000000000F0010A0109010880F0054
:10425400000000200FE01028100410220FE00020BE
:1042640010801F801120009010A01F10100010203B
:104274001FE010E8070418281FE400200000134082
:1042840014A014A014A017C01400000013C014201C
:104294001420142013C0000000000C001200114070
:1042A4000840000000000FC01020172012A01520A5
:1042B40010200FC0000800080008000800080018BB
:1042C4000000000005C0020013001A801400000062
:1042D400000005C002000D000A801E000800000056
:1042E4000C001F400C00000000000000000004004F
:1042F4000A00000004000A00000000000A00040094
:1043040000000A0004000000088002200880022047
:1043140008800220000015400AA015400AA015409C
:104324000AA0000017601DC017601DC017601DC0E3
:1043340000000000000000001FE00000000000007A
:104344000100010001001FE0000000000000100057
:104354001C001790046817841C00100010001C1027
:104364001788046417881C10100010001C001784A0
:10437400046817901C0010000FC0102017A014A090
:1043840014A010200FC002800280FEFF0000FFFF77
:104394000000000000000000FFFF0000FFFF00001D
:1043A400000002800280FE800080FF800000000088
:1043B4000280028002FF020003FF000000000000F0
:1043C40006000900198009000000000000000A60CE
:1043D4000A801F000A800A60000001000100010039
:1043E400FF0000000000000000000000000001FFCA
:1043F40001000100010001000100010001FF0100B2
:1044040001000100010001000100FF0001000100A2
:104414000100000000000000FFFF01000100010096
:104424000100010001000100010001000100010080
:1044340001000100FFFF01000100010000000D2048
:10444400129012A012901F00100010001C00178878
:10445400046417881C0410000000000003FF02001D
:1044640002FF0280028000000000FF800080FE80C6
:10447400028002800280028002FF020002FF0280AA
:10448400028002800280FE800080FE800280028022
:1044940000000000FFFF0000FEFF02800280028097
:1044A40002800280028002800280028000000000FC
:1044B4000000000000000000000017A008400840B1
:1044C4000840084017A0000000000880154016406E
:1044D4000C000000000011201FE0112010200840F3
:1044E4000780000010201FE0113013A8103018605E
:1044F400000010201FE0112813A0102818600000ED
:1045040010201FE0112413A81030186000000000D0
:1045140000000000001C000000000000000010204B
:1045240010201FF010281024000000001030102864
:104534001FE41028103000000000102010281FE095
:1045440010281020000001000100010001FF0000FC
:10455400000000000000000000003F000100010016
:104564000100FFFFFFFFFFFFFFFFFFFFFFFFFFFF54
:10457400FF00FF00FF00FF00FF00FF00FF0000003E
:10458400000000007F3F0000000000000000102435
:1045940010281FF010201020000000FF00FF00FF73
:1045A40000FF00FF00FF00FF00000FC010201030CC
:1045B40010280FC0000000007FE0112011201120FE
:1045C4000EC0000000000FC01028102410280FC0D7
:1045D400000000000FC01028103010200FC0000091
:1045E40000000F0010A0109010A00F100000000099
:1045F4000FC01028102410280FC4000040803F80F2
:104604001000100008801F80100000001FC015401B
:10461400050002000000000000001FE014A0048058
:1046240003000000000000200FE01020100C1024F4
:104634000FE4002000200FE01028100410280FE0E1
:10464400002000200FE41024100C10200FE00020A4
:104654000080418046A078104C88038000800020B0
:10466400006011A01E1011A80064002000000000CA
:10467400000000000000000000000000000400032F
:10468400000100000000000000000200020002001F
:1046940002000200000000001100110017C0110008
:1046A40011000000A000A000A000A000A000A00035
:1046B400A000022006A003E00D000A801E000800EE
:1046C400000000C001201FE000201FE000000000E7
:1046D4000C3810C4114411840E18000000000200AC
:1046E40002000A8002000200000000008000600056
:1046F4002000000000000000000000000000002076
:104704000050002000000000000000010000000133
:104714000000000000000000040000000000000091
:104724000000000001C000000000000000000000C4
:10473400000002A003E000000000000000000000F0
:104744000240032002C000000000000000000F80AF
:104754000F800F800F800F80000000000000000019
:104764000000000000000000000000000000000045
:104774000000000000000000000000000000000035
:104784000000003E33FF33FF003E00000000000045
:1047940000000000000700070000000000070007F9
:1047A40000000000000001201FFE1FFE0120012068
:1047B4001FFE1FFE01200000000006380E3C0864A6
:1047C4003FFF3FFF09840F1C071800000000301E44
:1047D4001C33071E01C000701E1C33071E0100009D
:1047E40000001F1E31B320E120E131B31F1E1B0066
:1047F400318000000000000000000000000B0007F2
:10480400000000000000000000000000000007F8A5
:104814003FFF780740000000000000000000000097
:104824000000400078073FFF07F800000000000088
:104834000000008002A003E001C001C003E002A068
:1048440000800000000000800080008003E003E09E
:1048540000800080008000000000000000000000D4
:10486400B0007000000000000000000000000080A4
:1048740000800080008000800080008000800000B4
:1048840000000000000000003000300000000000C4
:1048940000000000000030003C000F0003C000F0E6
:1048A400003C000F0003000000000FFC1FFE360355
:1048B40021812061301B1FFE0FFC0000000020043A
:1048C400200420063FFF3FFF2000200020000000BE
:1048D4000000380C3C0E26032301218120C3207ED6
:1048E400203C000000000C0C1C0E304320412041F1
:1048F40030431FFE0FBC000000000F000FE008FC57
:10490400081F3F833F8008000800000000000C3FA0
:104914001C3F30212021202130611FC10F81000064
:1049240000000FE01FF8305C2046204330C11F8197
:104934000F01000000000001000100013C013F8163
:1049440003F1007F000F000000000F1C1FBE30E3C6
:104954002041204130E31FBE0F1C00000000203C1A
:10496400207E20C3308118810E8307FE01FC0000E5
:104974000000000000000000306030600000000013
:10498400000000000000000000000000B060706043
:1049940000000000000000000000008001C003606F
:1049A40006300C18180C1004000000000000012050
:1049B400012001200120012001200120012000000C
:1049C40000001004180C0C180630036001C00080AD
:1049D400000000000000000600070003330133C19B
:1049E40000F3003F001E000000000FFC1FFE300318
:1049F40021E123F12211211333FE13FC00003FFCBB
:104A04003FFE01030101010101033FFE3FFC0000E1
:104A140000003FFF3FFF20412041204130E31FBE03
:104A24000F1C000000000FFC1FFE300320012001BA
:104A340030031C0E0C0C000000003FFF3FFF200160
:104A44002001200138071FFE07F8000000003FFF87
:104A54003FFF20412041204120412041200100000E
:104A640000003FFF3FFF0081008100810081008141
:104A74000001000000000FFC1FFE30032001208114
:104A840030831F8E0F8C000000003FFF3FFF00406B
:104A94000040004000403FFF3FFF000000002001B5
:104AA400200120013FFF3FFF2001200120010000E1
:104AB40000000C001C0030002000200030001FFF0C
:104AC4000FFF000000003FFF3FFF00C001E0073878
:104AD4000E1C3C0F3003000000003FFF3FFF20008E
:104AE40020002000200020002000000000003FFFE4
:104AF4003FFF007803C003C000783FFF3FFF000082
:104B040000003FFF3FFF001C007001C007003FFF93
:104B14003FFF000000000FFC1FFE300320012001B6
:104B240030031FFE0FFC000000003FFF3FFF008129
:104B34000081008100C3007E003C000000000FFCE7
:104B44001FFE300320016001F0039FFE0FFC0000F4
:104B540000003FFF3FFF0081008101811FC33E7EB3
:104B6400203C000000000C3C1C7E306320E121C18D
:104B740031831F8E0F0C00000000000100010001B2
:104B84003FFF3FFF000100010001000000000FFF94
:104B94001FFF30002000200030001FFF0FFF000027
:104BA4000000003F01FF0FC03C003C000FC001FFAC
:104BB400003F0000000001FF3FFF3E0001C001C0B4
:104BC4003E003FFF01FF000000003C0F3F3F03F0A9
:104BD40000C000C003F03F3F3C0F00000000003F56
:104BE40000FF01C03F803F8001C000FF003F000084
:104BF400000038013E01278121C120612039201F96
:104C0400200700000000000000003FFF3FFF2001DC
:104C1400200100000000000000000003000F003C21
:104C240000F003C00F003C00300000000000000052
:104C34000000200120013FFF3FFF000000000000B2
:104C44000000000400040006000300030006000640
:104C5400000400008000800080008000800080004C
:104C64008000800080008000000000000000000040
:104C74000007000B000000000000000000001E0000
:104C84003F4021202120212011203FE03FC000008F
:104C940000003FFF3FFF10402020202030601FC055
:104CA4000F80000000000F801FC0306020202020F3
:104CB400202030601040000000000F801FC03060D2
:104CC4002020202010403FFF3FFF000000000F8005
:104CD4001FC0326022202220226033C013800000D3
:104CE4000000002000203FFE3FFF002100210023A0
:104CF40000020000000047804FC0D8609020902040
:104D0400C8407FE03FE0000000003FFF3FFF00405D
:104D14000020002000603FC03F8000000000000031
:104D2400202020203FE33FE320002000000000007B
:104D3400000000004000C0208020FFE37FE300006B
:104D44000000000000003FFF3FFF060007000D8049
:104D540018C0306020200000000000002001200165
:104D64003FFF3FFF200020000000000000003FE064
:104D74003FE000601FC01FC000603FE03FC0000074
:104D840000003FE03FE000400020002000603FC002
:104D94003F80000000000F801FC0306020202020D2
:104DA40030601FC00F8000000000FFE0FFE01040F3
:104DB4002020202030601FC00F80000000000F80E2
:104DC4001FC02020202020201040FFE0FFE0000032
:104DD40000003FE03FE000C0004000600060006071
:104DE40000400000000010C031E0212023202620D4
:104DF40024203C6018400000000000000020002037
:104E04001FFE3FFE202020200000000000001FE0C5
:104E14003FE020002000200010003FE03FE00000C1
:104E2400000003E007E01C00300030001C0007E035
:104E340003E00000000007E03FE0380007C007C0BF
:104E440038003FE007E00000000030603DE00D80E6
:104E5400070007000D803DE030600000000083E0A3
:104E64008FE0DC00700030001C000FE003E0000065
:104E74000000302038202C202620232021A020E0F0
:104E84002060000000000000000000803FFE7F7FE3
:104E9400400140010000000000000000000000008C
:104EA400FFFFFFFF00000000000000000000000002
:104EB400400140017F7F3FFE0080000000000000B1
:104EC40000000002000200010001000200020001D3
:104ED4000001000000003FE03FF8301C30073007BD
:104EE400301C3FF83FE0000000000FFC1FFE3003C1
:104EF400A001E00170031C0E0C0C000000001FE078
:104F04003FE320032000200010033FE33FE00000C4
:104F140000000F801FC0326022202222226333C18E
:104F24001381000000001E003F402124212621237C
:104F340011233FE63FC4000000001E003F4321232D
:104F44002120212011233FE33FC0000000001E0068
:104F54003F4021212121212311223FE03FC00000B5
:104F640000001E003F4021222127212511273FE276
:104F74003FC0000000000F801FC03060A020E02070
:104F8400602030601040000000000F801FC03264B9
:104F940022262223226633C41380000000000F80DF
:104FA4001FC3326322202220226333C313800000F4
:104FB40000000F801FC0326122212223226233C0ED
:104FC4001380000000000000202320233FE03FE086
:104FD40020032003000000000000000020242026FD
:104FE4003FE33FE32006200400000000000000002F
:104FF400202120213FE33FE22000200000000000A8
:1050040000003FC03FE302330210021002333FE3CB
:105014003FC0000000003FC03FE002300213021412
:1050240002333FE03FC0000000003FF03FF021109A
:1050340021102112211321112011000000001E4013
:105044003F2021203FC01FE0222023E013C00000A6
:1050540000003FF83FFC010E3FFF3FFF208120810D
:105064002001000000000F801FC030642026202390
:1050740030661FC40F80000000000F801FC3306320
:105084002020202030631FC30F80000000000F8009
:105094001FC130612023202230601FC00F80000018
:1050A40000001FE03FE020042006200310063FE438
:1050B4003FE0000000001FE03FE120012003200248
:1050C40010003FE03FE00000000083E08FE3CC03EA
:1050D400780038001C030FE303E0000000000FC059
:1050E4001FE330332010201030331FE30FC00000C3
:1050F40000000FF01FF330032000200030031FF3E3
:105104000FF0000000006F807FC038602F2027A0C0
:1051140030E01FF00FB000000000309C3FFE2FE392
:1051240020812081208130031002000000006FFCE8
:105134007FFE3E0327E121F9301F1FFF0FFD000012
:1051440000000618073803F001E001E003F0073817
:10515400061800000000400080408040FFFE7FFFF2
:10516400004100410002000000001E003F402120D9
:105174002120212211233FE13FC100000000000053
:10518400202020203FE23FE3200100010000000036
:1051940000000F801FC030602020202230631FC118
:1051A4000F81000000001FE03FE0200020022003E8
:1051B40010013FE13FE0000000003FE03FE000421B
:1051C4000021002300623FC13F80000000003FF047
:1051D4003FF0006200C1018303023FF13FF0000091
:1051E4000000013801380145014501450145017FB1
:1051F400017E00000000011C013E016301410141E8
:105204000163013E011C000000001E003F0033C08A
:1052140020F3203330003800180000000FFC1FFE7C
:10522400300323F12091236130031FFE0FFC0000A3
:105234000000000002000200020002000E000E0046
:105244000000000000006021183F06200180626019
:10525400511849064601000000006021183F06204D
:105264000180186016187906100100000000000083
:1052740000001F003FF33FF31F0000000000000088
:10528400000006000F00198030C006000F001980CE
:1052940030C00000000030C019800F00060030C08C
:1052A40019800F0006000000844200002110000055
:1052B400000084420000211000000000AAAA00009F
:1052C400000055550000AAAA000000005555000032
:1052D4005555AAAA5555AAAA5555AAAA5555AAAAD2
:1052E4005555AAAA00000000000000000000FFFFBE
:1052F40000000000000000000040004000400040AA
:105304000040FFFF000000000000000000003FC05C
:105314003FE002320213021102313FE03FC00000BD
:1053240000003FC03FE002320213021102333FE2A9
:105334003FC0000000003FC03FE0023102110213F1
:1053440002323FE03FC000000FFC1FFE300321E1AA
:105354002211212130031FFE0FFC000000A000A039
:1053640000A000A0FFBF0000FFFF0000000000003D
:105374000000000000000000FFFF0000FFFF00002D
:105384000000000000A000A000A000A0FFA00020DA
:10539400FFE000000000000000A000A000A000A0AA
:1053A40000BF008000FF00000000000000000000BB
:1053B40003F807FC04041FFF0404071C031800007F
:1053C40000000003051F057C3FE03FE0057C051F4E
:1053D4000003000000400040004000400040FFC0C7
:1053E40000000000000000000000000000000000B9
:1053F4000000007F004000400040004000400040AA
:10540400004000400040007F004000400040004059
:1054140000400040004000400040FFC00040004009
:105424000040004000000000000000000000FFFFFA
:105434000040004000400040004000400040004068
:105444000040004000400040004000400040004058
:10545400004000400040FFFF00400040004000408A
:1054640000001E003F4021222121212311223FE17F
:105474003FC0000000003FC03FE0023202110213AF
:1054840002323FE13FC000000000000000000000C5
:1054940000FF008000BF00A000A000A000000000EA
:1054A40000000000FFE00020FFA000A000A000A07A
:1054B40000A000A000A000A000BF008000BF00A0CA
:1054C40000A000A000A000A000A000A0FFA0002059
:1054D400FFA000A000A000A0000000000000000049
:1054E400FFFF0000FFBF00A000A000A000A000A0DC
:1054F40000A000A000A000A000A000A000A000A0A8
:1055040000A000A000A000A0FFBF0000FFBF00A0FB
:1055140000A000A000000DF607FC0C06080208021B
:105524000C0607FC0DF60000000000001E183F3CAE
:10553400336C31CC3F8C1F0C0000000000803FFF17
:105544003FFF20812001200138071FFE07F80000DB
:1055540000003FF03FF021122113211121132112E9
:105564002010000000003FF03FF021132113211010
:10557400211321132010000000003FF03FF02111FF
:10558400211121132112211020100000000000001D
:1055940000000000001F001F0000000000000000C9
:1055A40000000000201020103FF23FF320112011D2
:1055B4000000000000000000201020123FF33FF123
:1055C400201320120000000000000000201020130F
:1055D4003FF33FF020132013000000000040004080
:1055E400004000400040007F000000000000000078
:1055F40000000000000000000000FFC00040004068
:1056040000400040FFFFFFFFFFFFFFFFFFFFFFFF22
:10561400FFFFFFFFFFFFFFFFFF80FF80FF80FF8092
:10562400FF80FF80FF80FF80FF80FF80000000007C
:1056340000000000FF7FFF7F00000000000000006A
:1056440000000000201120113FF33FF22010201031
:1056540000000000007F007F007F007F007F007F4C
:10566400007F007F007F007F00000FC01FE030300C
:105674002012201330311FE10FC000000000FFFE94
:10568400FFFF2041204120E33FBE1F1C000000001B
:1056940000000FC01FE030322013201130331FE20E
:1056A4000FC0000000000FC01FE130312013201292
:1056B40030301FE00FC0000000000F801FC23061B7
:1056C4002023202230611FC00F80000000000FC083
:1056D4001FE230312013201230311FE00FC00000D0
:1056E4000000FFE0FFE030003000300018003FE031
:1056F4003FE00000000010081FF81FF812480240A5
:1057040003C0018000000000000020043FFC3FFCB7
:105714002424042007E003C00000000000000FF070
:105724001FF030002002200330011FF10FF00000B1
:1057340000000FF01FF030022003200130031FF29D
:105744000FF0000000000FF01FF1300120032002D1
:1057540030001FF00FF00000000083E08FE0CC0069
:10576400780238031C010FE103E000000000007020
:1057740001F003803F023F03038101F10070000048
:105784000000000000000000000100010001000111
:1057940000000000000000000000000200030001FF
:1057A4000001000000000000000000000000008074
:1057B40000800080008000800000000000000000E5
:1057C4000840084009F009F00840084000000000C3
:1057D40000000000012001200120012001200120FF
:1057E40000000000000060211825061A01801860DE
:1057F40016187906100100000000007E00FF3FFF2C
:105804003FFF000100013FFF3FFF000000001806BA
:10581400386F20FD2199233127E13EC71C06000083
:10582400000000800080008006B006B00080008088
:10583400008000000000000000400080008000C0E4
:1058440000C000000000000000000018003C0066DA
:1058540000420066003C0018000000000000000048
:105864000180018000000000018001800000000030
:105874000000000000000000018001800000000022
:1058840000000000000000000004007E0000000092
:10589400000000000000000000000022004A004A4E
:1058A400003400000000000000000000000000645C
:1058B40000520052004C00000000000000000000F4
:1058C40000000000000003F003F003F003F0000008
:1058D40000000000000000000000000000000000C4
:1058E400000000000000000007F807F80FFC0FFCA0
:1058F4000F840F8409E409E4087C087C0FFC0FFC86
:1059040007F807F800000000000000000810081065
:10591400081808180FFC0FFC0FFC0FFC0800080007
:1059240008000800000000000E080E080F0C0F0C01
:105934000984098408C408C4086408640C3C0C3C49
:105944000C180C1800000000040804080C0C0C0CC3
:105954000844084408440844084408440FFC0FFC65
:1059640007B807B80000000000C000C000E000E075
:1059740000B000B0089808980FFC0FFC0FFC0FFC57
:105984000880088000000000047C047C0C7C0C7CF3
:105994000844084408440844084408440FC40FC495
:1059A400078407840000000007F007F00FF80FF8E1
:1059B400084C084C08440844084408440FC00FC06D
:1059C4000780078000000000000C000C000C000C95
:1059D4000F040F040F840F8400C400C4007C007CF7
:1059E400003C003C0000000007B807B80FFC0FFCA7
:1059F4000844084408440844084408440FFC0FFCC5
:105A040007B807B80000000000380038087C087C9C
:105A140008440844084408440C440C4407FC07FCAC
:105A240003F803F8000000000500000000070E0161
:105A340020FF00002C3B00085072696D65722046FF
:105A44006F6E74000000000001070E0220FF0000CA
:105A54002C3B00085072696D657220466F6E74208D
:105A640078320000020A100120FF00006C47000891
:105A74004D656469756D20466F6E7400000000000A
:105A8400030A100220FF00006C4700084D6564699A
:105A9400756D20466F6E742078320000041010017A
:105AA40030390000EC5800084E756D626572730061
:105AB40000000000000000000000000000000000E2
:105AC40000000000000000000000000000000000D2
